:100000005EC278C278C276C275C274C273C272C24E
:1000100071C284C26FC26EC26DC26CC26BC26AC250
:1000200069C268C267C203000000001000F8000047
:100030001000FC000010C0F8020010C0F0070070B3
:10004000C0300F0071C0700F0073C0E00F0072C0AD
:10005000C00F0072C0800F00C3000F0000A0C0F0EE
:100060000700A0C0F8020030A002F80030A007F09E
:100070000033000F000032500F800032500FC000DC
:1000800033500FE00031500F700030500F3000201F
:1000900030F007002030F802002000FC00002000B3
:1000A000F8000003000000001300FF0000D0003043
:1000B0000000D40078000072D001780072D003787C
:1000C00000627D800778617D80067840AD800730D2
:1000D00041A0C00F0040AB800730518B06807852A2
:1000E0008B07807852B003780052B0017800B400DA
:1000F000780000B0003000002300FF000003000083
:10010000000010007F00001000FF000010007F00C2
:100110000010903F8000609030C000619038C000B7
:1001200062901CC00060901EC00061900EC0006014
:10013000900FC000629007C000619003C000619002
:1001400001C00040903F800041007F0000004080DF
:100150003F000180C001000180C003000280C00791
:10016000000080C00F000180C00E000080C01E0093
:100170000280C01C000180C038000080C030000038
:1001800020803F0020007F00002000FF00002000B2
:100190007F00000100000000F0000C0000F00018DB
:1001A0000000F000380000F00070000090F001F056
:1001B0000090F003F000900003000093F003F000C3
:1001C0009C00030000900001000000000100000AF4
:1001D0000003000003F003F0000300030000000030
:1001E0000100000100000000FF1F181D16172A0E55
:1001F00010072A1E141C141E121916062803124872
:10020000150A10291369120F121D144F125D141EC6
:100210000604280B128811C912E001202186010E64
:100220001060000702850102000000002808081382
:100230002E1E2EF807E60300084001A000F02D1046
:100240002C50051004B00480018F130102171417FD
:1002500006190636021E1605021F161F06FF3F006E
:10026000208201120462001D20181442161A161270
:100270001413168214040004088408C408C40CD49F
:100280000C91089205A600822100E0303080E0F059
:100290003030E000003133B3B3F1303333F10000DC
:1002A000E6B3B33131333333E1000407030303030F
:1002B0000303030100001E3333381E0F33331E00C7
:1002C00000333333333F333333330000333333338B
:1002D000F3333333F300003030303030303030FD22
:1002E00000003C6666703C1E66663C0000D6D6D6B2
:1002F000DEEEEEC6C6C600000C0C0C7CCCCCCCCC22
:100300007C00003E06060606060606060000606043
:100310006060E0606060E00000EC666763E3666672
:1003200066E30000B3B0B0F0737030303300000605
:1003300006060607070606060000C66676363E660F
:1003400066663E0000BE8606063E0606063E0000C5
:10035000B1B19B9F9B9B9B8E8E000031191D0D0F91
:100360001919190F0000D6D6D6DEEEEEC6C6C600A5
:10037000008CCCEC6C7CCCCCCC7C0000CDECECECE0
:10038000FCDCDCDCCC000078CCCCCCEC0CCCCC782D
:100390000000D6D6D6DEEEEEC6C6C60000C6C66CD7
:1003A0007C6C6C6C383800008C8C8C8C8C8C8C8CBD
:1003B000BF0000191919191F191919190000E06057
:1003C0006060E0606060E000003330B0B0F3303077
:1003D00030F300003633B3B1F1333333F1000006AC
:1003E00003030101030303010000DBDB9B9F9B1B55
:1003F0001B0ECE000087C0C1C1C1C3C3C6870000A9
:10040000676C6C6CEC6C6C6CE70000181818187951
:10041000181818FB0000C6C66C7C6C6C6C38380071
:10042000003E666666666666663E0000C6667636AE
:100430003E6666663E00003C6666703C1E66663C34
:1004400000009BDBDBDFDBDBDBCE8E000007CCC0FC
:10045000C0F0F0C0CCC70000F89898989B9B989883
:10046000F8000078CD0D0D0D0D0DCD780000C0C049
:10047000F0D0D0E0E0C0C0000030303158585858BB
:1004800098980000C68685CDCDCDCDCC8C00000CD3
:1004900004040C0C0C0C0C07000B0A0908070403DD
:1004A0000201000605E1020D038902150441046DF5
:1004B00004E903650391033903BD03B50200112468
:1004C0001FBECFE5D4E0DEBFCDBF10E0A0E6B0E0B8
:1004D000E8E8F1E102C005900D92AA36B107D9F71C
:1004E00020E0AAE6B0E001C01D92A03AB207E1F711
:1004F000F2D148C685CD1F920F920FB60F921124EC
:100500008F938DEF82BF8EE083BF81E08093700078
:100510008F910F900FBE0F901F9018951F920F9202
:100520000FB60F921124EF92FF921F932F933F93D8
:100530004F935F936F937F938F939F93AF93BF93EB
:10054000CF93DF93EF93FF938FEF82BF80916D0086
:10055000869580936D0090B320916D0030E8939F55
:10056000C0011124822B80936D0080916A008F5FFF
:1005700080936A00883008F46BC1809170008823F2
:1005800009F459C081E080936F0080916D008A3238
:1005900071F030F48A3059F08A3109F040C007C058
:1005A000883C79F18C3FB1F08C3BC9F517C0809144
:1005B0006E00816080936E0086E080936C001092E4
:1005C0006B0080916D0080937100109270008DEF30
:1005D00082BF2AC081E080936C002FC180916E00A1
:1005E000826080936E0082E080936C0010926B00BA
:1005F00080916D0080937100109270008DEF82BF2A
:1006000013C082E080936C0010926B0080916D00AB
:1006100080937100109270008DEF82BF18C010920D
:100620006C0010926F0009C18FEF8DBD81EB8CBD06
:1006300085E08EBD0CC0E0916B0081E08E0F809351
:100640006B00F0E080916D00EE58FF4F80831092B8
:100650006A0010926D0090916B0080916C00981769
:1006600008F4F6C013BE10926A0080916F008823D0
:1006700009F4EEC0809171008A30D9F4E4E8F0E02A
:1006800020E030E0D901AE58BF4F8C919081907F2F
:100690008F70892B80838C919181907F82958F7050
:1006A000892B81832F5F3F4F32962630310551F7DA
:1006B000CFC0809171008A3109F043C0C4E8D0E016
:1006C000A8E7B0E080E090E0AC014E585F4FFA013F
:1006D00030812881622F6F70F0E13F9F90011124DB
:1006E0002073262B2883FA01208139813F702073E3
:1006F000232B29832081E22FE695E695E370F0E035
:10070000E05AFF4F2C91207F3081232B2C93FA014C
:10071000308111962C911197207FE32FE295E69579
:10072000E695E370F0E0E05AFF4F3081232B1196FD
:100730002C9311970196229612968630910521F6F8
:1007400087C0809171008A3209F043C0E4E8F0E08C
:1007500020E030E07901DF01C9018E589F4FEC01A4
:1007600098818081182F1F73492F417050E0CA0172
:100770000024969587950794969587950794982FCA
:10078000802D812B803508F080E28C93E701CE58D4
:10079000DF4F888184FB662760F970E0CB0100247D
:1007A000969587950794969587950794982F802D11
:1007B00011969C9111979F73892B803508F080E2E8
:1007C00011968C932F5F3F4F32962630310511F6EC
:1007D0003FC0809171008C3BD9F580917200A8E7F1
:1007E000B0E020E830E0FD0180FF04C0908190611E
:1007F000908303C090819F7E908386953196E21707
:10080000F30791F7809173002CE730E080FF08C078
:1008100018969C911897906118969C93189707C00A
:1008200018969C9118979F7E18969C93189786957A
:1008300011962A173B0751F70BC010926B0080915D
:100840006D0080937100109270008DEF82BFFFCE1B
:10085000FF91EF91DF91CF91BF91AF919F918F91D8
:100860007F916F915F914F913F912F911F91FF90D9
:10087000EF900F900FBE0F901F90189510926E0082
:1008800082B3827E82BB81B3827E81BB85B78C605E
:1008900085BF8AB780688ABF8BB780688BBF13BE5D
:1008A0008DEF82BF88B7816088BF89B7816089BFBB
:1008B0007894089598B7892F847092FF0BC01EBC5E
:1008C00088B7846088BF80916E0090916E009827F1
:1008D00090936E0008954DD0D1DF8B988D9AEADF0A
:1008E000C82F80FF02C085E3AAD0C1FFF8CF85E200
:1008F00010D3F5CF0F931F93CF93DF93D82FC62F2D
:10090000042F122F5CD388E782D380E080D381E26A
:100910007ED3802F7CD3812F7AD360D350D388E7C6
:1009200076D380E074D382E272D38D2F70D38C2F74
:100930006ED354D3DF91CF911F910F910895CF9330
:100940002FE740E063E080E0D5DF39D388E75FD36D
:1009500080E45DD3C0E080E05AD380E058D380E0EB
:1009600056D380E054D3CF5FC038A9F737D3CF91A7
:100970000895979A8F9A96988E9A12D387EA91E65D
:100980000197F1F700C00000969A8FE493EC01976D
:10099000F1F700C00000979887EA91E60197F1F718
:1009A00000C00000979A87EA91E60197F1F700C02E
:1009B000000005D388E72BD380E029D38EEA27D324
:1009C00088EA25D38FE123D383ED21D380E01FD3A1
:1009D00080E41DD381EA1BD380EC19D381E817D3BF
:1009E00087E815D385ED13D380E811D389ED0FD3B4
:1009F00082E20DD38AED0BD382E109D38BED07D3CD
:100A000080E205D38DE803D380E101D386EAFFD2EB
:100A100084EAFDD28FEAFBD280E2F9D280E0F7D2FD
:100A2000DDD28DDFE4E8F0E0A8E7B0E020E930E0D7
:100A300080E281931D92E217F307D9F708952F9270
:100A40003F924F925F926F927F928F929F92AF925E
:100A5000BF92CF92DF92EF92FF920F931F93CF93AB
:100A6000DF93CDB7DEB7A9970FB6F894DEBF0FBE00
:100A7000CDBFE4EAF4E0449150E024E830E0D9014D
:100A80001B96EC91F0E0EE0FFF1FE751FE4F6591D2
:100A90007491FA01EE0FFF1F01E010E00C0F1D1F13
:100AA000E00FF11F75876487F801E40FF51FA8E7D1
:100AB000B0E01B969C911B979083E3EAF4E044918D
:100AC00050E0F9019285E92FF0E0EE0FFF1FE751AA
:100AD000FE4F65917491FA01EE0FFF1F01E010E0E7
:100AE0000C0F1D1FE00FF11F75876487F801E40FDD
:100AF000F51F1A969C911A979083E2EAF4E04491CC
:100B000050E0F9019185E92FF0E0EE0FFF1FE7516A
:100B1000FE4F65917491FA01EE0FFF1F01E010E0A6
:100B20000C0F1D1FE00FF11F75876487F801E40F9C
:100B3000F51F19969C9119979083E1EAF4E044918E
:100B400050E0F9019085E92FF0E0EE0FFF1FE7512B
:100B5000FE4F65917491FA01EE0FFF1F01E010E066
:100B60000C0F1D1FE00FF11F75876487F801E40F5C
:100B7000F51F18969C9118979083E0EAF4E0449151
:100B800050E0F9019781E92FF0E0EE0FFF1FE751E8
:100B9000FE4F65917491FA01EE0FFF1F01E010E026
:100BA0000C0F1D1FE00FF11F75876487F801E40F1C
:100BB000F51F17969C9117979083EFE9F4E0449105
:100BC00050E0F9019681E92FF0E0EE0FFF1FE751A9
:100BD000FE4F65917491FA01EE0FFF1F01E010E0E6
:100BE0000C0F1D1FE00FF11F75876487F801E40FDC
:100BF000F51F16969C9116979083EEE9F4E04491C8
:100C000050E0F9019581E92FF0E0EE0FFF1FE75169
:100C1000FE4F65917491FA01EE0FFF1F01E010E0A5
:100C20000C0F1D1FE00FF11F75876487F801E40F9B
:100C3000F51F15969C9115979083EDE9F4E044918A
:100C400050E0F9019481E92FF0E0EE0FFF1FE7512A
:100C5000FE4F65917491FA01EE0FFF1F01E010E065
:100C60000C0F1D1FE00FF11F75876487F801E40F5B
:100C7000F51F14969C9114979083ECE9F4E044914D
:100C800050E0F9019381E92FF0E0EE0FFF1FE751EB
:100C9000FE4F65917491FA01EE0FFF1F01E010E025
:100CA0000C0F1D1FE00FF11F75876487F801E40F1B
:100CB000F51F13969C9113979083EBE9F4E0449110
:100CC00050E0F9019281E92FF0E0EE0FFF1FE751AC
:100CD000FE4F65917491FA01EE0FFF1F01E010E0E5
:100CE0000C0F1D1FE00FF11F75876487F801E40FDB
:100CF000F51F12969C9112979083EAE9F4E04491D3
:100D000050E0F9019181E92FF0E0EE0FFF1FE7516C
:100D1000FE4F65917491FA01EE0FFF1F01E010E0A4
:100D20000C0F1D1FE00FF11F75876487F801E40F9A
:100D3000F51F11969C9111979083E9E9F4E0449195
:100D400050E0F9019081E92FF0E0EE0FFF1FE7512D
:100D5000FE4F25913491FA01EE0FFF1F01E010E0E4
:100D60000C0F1D1FE00FF11F35872487F801E40FDA
:100D7000F51F9C91908321E3280F482F63E080E0CA
:100D8000B9DD1DD188E743D180E441D10F2EF6E2D1
:100D90006F2EF0E07F2EF02D412C512C1E0115E21C
:100DA000210E311CF3019490FFEF9F1609F497C0B8
:100DB000F30131968491319604910DA331962491DB
:100DC00015E0410E511C31968490009168001091FD
:100DD0006900992D92959F7061E070E002C0660FE6
:100DE000771F9A95E2F7982F92959F70CC24C39421
:100DF000D12C02C0CC0CDD1C9A95E2F7E82FEF70E5
:100E0000AA24A394B12C02C0AA0CBB1CEA95E2F759
:100E1000DE011D96AE014F5F5F4FE0E9F0E07FA27B
:100E20006EA2792C922EF9A7E8A78D919D91FA01D7
:100E30002191AF014016510650F02695269530E0DD
:100E40003327269537952227822B932B1EC0E090BF
:100E50006600F09067004E145F0448F0269530E07D
:100E60003327269537952227822B932B0EC0E4E655
:100E7000F0E0E080F1804E145F0438F030E033277A
:100E8000269537952227822B932B9C0126233723E7
:100E9000232B11F02DA101C020E07C01EC20FD20CE
:100EA000EF2809F029298A219B21892B09F028297B
:100EB000E8A5F9A52193F9A7E8A7A215B30509F0BC
:100EC000B4CF172D6EA07FA0EED01150812F8F7060
:100ED00090E00F97CCF3F5E06F0E711C63CF7ED0DE
:100EE000A9960FB6F894DEBF0FBECDBFDF91CF91AC
:100EF0001F910F91FF90EF90DF90CF90BF90AF9038
:100F00009F908F907F906F905F904F903F902F9029
:100F100008950F931F93CF93DF932AE0280F482F54
:100F200063E080E0E7DC4BD088E771D080E46FD0ED
:100F300000E010E0C3EAD4E026C0FC0165917491A2
:100F4000DA01ED91AD01E4FF0BC0F901A491FB01C1
:100F5000E00FF11FE491B0E0A057BF4FEC9307C042
:100F6000F9016491E62FF0E0E057FF4F10820297FD
:100F70002F5F3F4F8C179D0701F795D00F5F1F4FD5
:100F80000C32110539F08BEB94E048E750E029E989
:100F900034E0D3CF23D0DF91CF911F910F910895EB
:100FA00085B38F6185BB84B38F6184BB88B38F6D3C
:100FB00088BB87B38F6D87BBAD9AA59A0895AD9A0C
:100FC00085E090E0FC013197F1F725B3207E25BB49
:100FD00028B3207228BB0197F1F7089585B3807E6E
:100FE00085BB88B3807288BB85E090E0FC013197B7
:100FF000F1F7AD9AE3E0F0E03197F1F725B32F6117
:1010000025BB28B32F6D28BB0197F1F7089598E011
:1010100063E070E045E050E0AD98FB013197F1F7F7
:1010200088233CF425B32F6125BB28B32F6D28BB43
:1010300006C025B3207E25BB28B3207228BBFA0149
:101040003197F1F7AD9AFA013197F1F7880F915086
:1010500019F7AD9883E090E00197F1F784B3807EB3
:1010600084BB87B3807287BB85B38F6185BB88B330
:101070008F6D88BB85B38F6185BB88B38F6D88BB4F
:1010800085E090E0FC013197F1F7AD9AFC013197D2
:10109000F1F7AD980197F1F784B38F6184BB87B303
:1010A0008F6D87BB089568E080E8E0E9F0E043E0F9
:1010B00050E0AD9898B3907225B3207E30813823EC
:1010C00009F091603181382309F092603281382330
:1010D00009F094603381382309F098603481382313
:1010E00009F090613581382309F090643681382306
:1010F00009F090683781382309F021603085382362
:1011000009F022603185382309F0246032853823C4
:1011100009F028603385382309F0206198BB25BB8E
:10112000AD9ADA011197F1F78695615009F0C1CFB8
:10113000AD9883E090E00197F1F784B3807E84BBA3
:1011400087B3807287BB85B38F6185BB88B38F6D92
:1011500088BB85B38F6185BB88B38F6D88BB85E005
:1011600090E0FC013197F1F7AD9AFC013197F1F76E
:10117000AD980197F1F784B38F6184BB87B38F6D0E
:0811800087BB0895F894FFCF2E
:0A1188000002060372019501AE019A
:00000001FF
